{
  "address": "0x9fE46736679d2D9a65F0992F2272dE9f3c7fa6e0",
  "abi": [
    {
      "inputs": [
        {
          "internalType": "address",
          "name": "_DFITokenAddress",
          "type": "address"
        },
        {
          "internalType": "address",
          "name": "_dSeedTokenAddress",
          "type": "address"
        }
      ],
      "stateMutability": "nonpayable",
      "type": "constructor"
    },
    {
      "inputs": [],
      "name": "DeFiSeedFinder__NotEnoughAllowance",
      "type": "error"
    },
    {
      "anonymous": false,
      "inputs": [
        {
          "indexed": false,
          "internalType": "address",
          "name": "_from",
          "type": "address"
        },
        {
          "indexed": false,
          "internalType": "address",
          "name": "_to",
          "type": "address"
        },
        {
          "indexed": false,
          "internalType": "uint256",
          "name": "_amount",
          "type": "uint256"
        }
      ],
      "name": "TokenSwap",
      "type": "event"
    },
    {
      "inputs": [],
      "name": "getDFITokenAddress",
      "outputs": [
        {
          "internalType": "address",
          "name": "",
          "type": "address"
        }
      ],
      "stateMutability": "view",
      "type": "function"
    },
    {
      "inputs": [],
      "name": "getDSeedTokenAddress",
      "outputs": [
        {
          "internalType": "address",
          "name": "",
          "type": "address"
        }
      ],
      "stateMutability": "view",
      "type": "function"
    },
    {
      "inputs": [
        {
          "internalType": "uint256",
          "name": "_amount",
          "type": "uint256"
        }
      ],
      "name": "swapDFITokenToSeedToken",
      "outputs": [],
      "stateMutability": "nonpayable",
      "type": "function"
    },
    {
      "inputs": [
        {
          "internalType": "uint256",
          "name": "_amount",
          "type": "uint256"
        }
      ],
      "name": "swapSeedTokenToDFIToken",
      "outputs": [],
      "stateMutability": "nonpayable",
      "type": "function"
    }
  ],
  "transactionHash": "0xfe0fd809c1a4ee3b04c4a9b4cd1b6683d1124b759445cf9b8d01a12a4383169d",
  "args": [
    "0x5FbDB2315678afecb367f032d93F642f64180aa3",
    "0xe7f1725E7734CE288F8367e1Bb143E90bb3F0512"
  ],
  "numDeployments": 1,
  "solcInputHash": "c67524bb918b76199b7cb406f7f52587",
  "bytecode": "0x608060405234801561001057600080fd5b506040516109353803806109358339818101604052810190610032919061011d565b81600160006101000a81548173ffffffffffffffffffffffffffffffffffffffff021916908373ffffffffffffffffffffffffffffffffffffffff160217905550806000806101000a81548173ffffffffffffffffffffffffffffffffffffffff021916908373ffffffffffffffffffffffffffffffffffffffff160217905550505061015d565b600080fd5b600073ffffffffffffffffffffffffffffffffffffffff82169050919050565b60006100ea826100bf565b9050919050565b6100fa816100df565b811461010557600080fd5b50565b600081519050610117816100f1565b92915050565b60008060408385031215610134576101336100ba565b5b600061014285828601610108565b925050602061015385828601610108565b9150509250929050565b6107c98061016c6000396000f3fe608060405234801561001057600080fd5b506004361061004c5760003560e01c806326ee85911461005157806346c2b8681461006f578063ab1935ae1461008b578063db38c738146100a9575b600080fd5b6100596100c5565b60405161006691906105d1565b60405180910390f35b61008960048036038101906100849190610627565b6100ee565b005b6100936102b3565b6040516100a091906105d1565b60405180910390f35b6100c360048036038101906100be9190610627565b6102dd565b005b60008060009054906101000a900473ffffffffffffffffffffffffffffffffffffffff16905090565b60008054906101000a900473ffffffffffffffffffffffffffffffffffffffff1673ffffffffffffffffffffffffffffffffffffffff16639dc29fac33836040518363ffffffff1660e01b8152600401610149929190610663565b600060405180830381600087803b15801561016357600080fd5b505af1158015610177573d6000803e3d6000fd5b50505050600160009054906101000a900473ffffffffffffffffffffffffffffffffffffffff1673ffffffffffffffffffffffffffffffffffffffff1663a9059cbb33836040518363ffffffff1660e01b81526004016101d8929190610663565b602060405180830381600087803b1580156101f257600080fd5b505af1158015610206573d6000803e3d6000fd5b505050506040513d601f19601f8201168201806040525081019061022a91906106c4565b61023357600080fd5b7f9d3e64e0b9bc617a229c24a7aa25ef6c9c775a1998f32e31dde4da03c467dc0e60008054906101000a900473ffffffffffffffffffffffffffffffffffffffff16600160009054906101000a900473ffffffffffffffffffffffffffffffffffffffff16836040516102a8939291906106f1565b60405180910390a150565b6000600160009054906101000a900473ffffffffffffffffffffffffffffffffffffffff16905090565b6000600160009054906101000a900473ffffffffffffffffffffffffffffffffffffffff1673ffffffffffffffffffffffffffffffffffffffff1663dd62ed3e33306040518363ffffffff1660e01b815260040161033c929190610728565b60206040518083038186803b15801561035457600080fd5b505afa158015610368573d6000803e3d6000fd5b505050506040513d601f19601f8201168201806040525081019061038c9190610766565b9050818110156103c8576040517ff24ec39700000000000000000000000000000000000000000000000000000000815260040160405180910390fd5b600160009054906101000a900473ffffffffffffffffffffffffffffffffffffffff1673ffffffffffffffffffffffffffffffffffffffff166323b872dd3330856040518463ffffffff1660e01b8152600401610427939291906106f1565b602060405180830381600087803b15801561044157600080fd5b505af1158015610455573d6000803e3d6000fd5b505050506040513d601f19601f8201168201806040525081019061047991906106c4565b61048257600080fd5b60008054906101000a900473ffffffffffffffffffffffffffffffffffffffff1673ffffffffffffffffffffffffffffffffffffffff166340c10f1933846040518363ffffffff1660e01b81526004016104dd929190610663565b600060405180830381600087803b1580156104f757600080fd5b505af115801561050b573d6000803e3d6000fd5b505050507f9d3e64e0b9bc617a229c24a7aa25ef6c9c775a1998f32e31dde4da03c467dc0e600160009054906101000a900473ffffffffffffffffffffffffffffffffffffffff1660008054906101000a900473ffffffffffffffffffffffffffffffffffffffff1684604051610584939291906106f1565b60405180910390a15050565b600073ffffffffffffffffffffffffffffffffffffffff82169050919050565b60006105bb82610590565b9050919050565b6105cb816105b0565b82525050565b60006020820190506105e660008301846105c2565b92915050565b600080fd5b6000819050919050565b610604816105f1565b811461060f57600080fd5b50565b600081359050610621816105fb565b92915050565b60006020828403121561063d5761063c6105ec565b5b600061064b84828501610612565b91505092915050565b61065d816105f1565b82525050565b600060408201905061067860008301856105c2565b6106856020830184610654565b9392505050565b60008115159050919050565b6106a18161068c565b81146106ac57600080fd5b50565b6000815190506106be81610698565b92915050565b6000602082840312156106da576106d96105ec565b5b60006106e8848285016106af565b91505092915050565b600060608201905061070660008301866105c2565b61071360208301856105c2565b6107206040830184610654565b949350505050565b600060408201905061073d60008301856105c2565b61074a60208301846105c2565b9392505050565b600081519050610760816105fb565b92915050565b60006020828403121561077c5761077b6105ec565b5b600061078a84828501610751565b9150509291505056fea2646970667358221220c2ff3c59d5a86cc8f8660ddcd338dc9a80d6b77872a0535a93a8318f6245963264736f6c63430008090033",
  "devdoc": {
    "kind": "dev",
    "methods": {},
    "version": 1
  },
  "userdoc": {
    "kind": "user",
    "methods": {},
    "version": 1
  },
  "storageLayout": {
    "storage": [
      {
        "astId": 2670,
        "contract": "contracts/DeFiSeedFinder.sol:DeFiSeedFinder",
        "label": "seedToken",
        "offset": 0,
        "slot": "0",
        "type": "t_contract(ISeedToken)2838"
      },
      {
        "astId": 2673,
        "contract": "contracts/DeFiSeedFinder.sol:DeFiSeedFinder",
        "label": "DFIToken",
        "offset": 0,
        "slot": "1",
        "type": "t_contract(IERC20)777"
      }
    ],
    "types": {
      "t_contract(IERC20)777": {
        "encoding": "inplace",
        "label": "contract IERC20",
        "numberOfBytes": "20"
      },
      "t_contract(ISeedToken)2838": {
        "encoding": "inplace",
        "label": "contract ISeedToken",
        "numberOfBytes": "20"
      }
    }
  }
}