{
  "address": "0xDc64a140Aa3E981100a9becA4E685f962f0cF6C9",
  "abi": [
    {
      "inputs": [],
      "stateMutability": "nonpayable",
      "type": "constructor"
    },
    {
      "inputs": [],
      "name": "SeedProject__FundingDontFailed",
      "type": "error"
    },
    {
      "inputs": [],
      "name": "SeedProject__FundingNotFinished",
      "type": "error"
    },
    {
      "anonymous": false,
      "inputs": [
        {
          "indexed": false,
          "internalType": "address",
          "name": "fundingAddress",
          "type": "address"
        },
        {
          "indexed": false,
          "internalType": "uint256",
          "name": "tokenAmount",
          "type": "uint256"
        }
      ],
      "name": "FundingsTransfered",
      "type": "event"
    },
    {
      "anonymous": false,
      "inputs": [
        {
          "indexed": false,
          "internalType": "uint8",
          "name": "version",
          "type": "uint8"
        }
      ],
      "name": "Initialized",
      "type": "event"
    },
    {
      "anonymous": false,
      "inputs": [
        {
          "indexed": false,
          "internalType": "enum SeedProject.Status",
          "name": "newStatus",
          "type": "uint8"
        }
      ],
      "name": "ProjectStatusChanged",
      "type": "event"
    },
    {
      "inputs": [],
      "name": "finishProject",
      "outputs": [],
      "stateMutability": "nonpayable",
      "type": "function"
    },
    {
      "inputs": [],
      "name": "getDeadline",
      "outputs": [
        {
          "internalType": "uint256",
          "name": "",
          "type": "uint256"
        }
      ],
      "stateMutability": "view",
      "type": "function"
    },
    {
      "inputs": [],
      "name": "getFounder",
      "outputs": [
        {
          "internalType": "address",
          "name": "",
          "type": "address"
        }
      ],
      "stateMutability": "view",
      "type": "function"
    },
    {
      "inputs": [],
      "name": "getFundedTokenAmount",
      "outputs": [
        {
          "internalType": "uint256",
          "name": "",
          "type": "uint256"
        }
      ],
      "stateMutability": "view",
      "type": "function"
    },
    {
      "inputs": [],
      "name": "getFundingAddress",
      "outputs": [
        {
          "internalType": "address",
          "name": "",
          "type": "address"
        }
      ],
      "stateMutability": "view",
      "type": "function"
    },
    {
      "inputs": [],
      "name": "getProjectTokenAddress",
      "outputs": [
        {
          "internalType": "address",
          "name": "",
          "type": "address"
        }
      ],
      "stateMutability": "view",
      "type": "function"
    },
    {
      "inputs": [],
      "name": "getRemainingFundingTime",
      "outputs": [
        {
          "internalType": "uint256",
          "name": "",
          "type": "uint256"
        }
      ],
      "stateMutability": "view",
      "type": "function"
    },
    {
      "inputs": [],
      "name": "getRequestedFunds",
      "outputs": [
        {
          "internalType": "uint256",
          "name": "",
          "type": "uint256"
        }
      ],
      "stateMutability": "view",
      "type": "function"
    },
    {
      "inputs": [
        {
          "internalType": "uint256",
          "name": "_deadline",
          "type": "uint256"
        },
        {
          "internalType": "uint256",
          "name": "_requestedFunds",
          "type": "uint256"
        },
        {
          "internalType": "address",
          "name": "_founder",
          "type": "address"
        },
        {
          "internalType": "address",
          "name": "_fundingAddress",
          "type": "address"
        },
        {
          "internalType": "address",
          "name": "_tokenAddress",
          "type": "address"
        }
      ],
      "name": "initialize",
      "outputs": [],
      "stateMutability": "nonpayable",
      "type": "function"
    },
    {
      "inputs": [],
      "name": "isFundingFinished",
      "outputs": [
        {
          "internalType": "bool",
          "name": "",
          "type": "bool"
        }
      ],
      "stateMutability": "view",
      "type": "function"
    },
    {
      "inputs": [],
      "name": "retrieveFunds",
      "outputs": [],
      "stateMutability": "nonpayable",
      "type": "function"
    }
  ],
  "transactionHash": "0x49462928547ccd7add73f5f0d181dcbcc897273655906e59b2c558bbfe785508",
  "args": [],
  "numDeployments": 1,
  "solcInputHash": "6e14330905c68db5e52b3675b84aedef",
  "bytecode": "0x608060405234801561001057600080fd5b5061001f61002460201b60201c565b6101bf565b600060019054906101000a900460ff1615610074576040517f08c379a000000000000000000000000000000000000000000000000000000000815260040161006b90610168565b60405180910390fd5b60ff801660008054906101000a900460ff1660ff1610156100e35760ff6000806101000a81548160ff021916908360ff1602179055507f7f26b83ff96e1f2b6a682f133852f6798a09c465da95921460cefb384740249860ff6040516100da91906101a4565b60405180910390a15b565b600082825260208201905092915050565b7f496e697469616c697a61626c653a20636f6e747261637420697320696e69746960008201527f616c697a696e6700000000000000000000000000000000000000000000000000602082015250565b60006101526027836100e5565b915061015d826100f6565b604082019050919050565b6000602082019050818103600083015261018181610145565b9050919050565b600060ff82169050919050565b61019e81610188565b82525050565b60006020820190506101b96000830184610195565b92915050565b610c3980620001cf6000396000f3fe608060405234801561001057600080fd5b50600436106100a95760003560e01c806361b20d8c1161007157806361b20d8c1461014257806369788c8e1461014c5780637cbb7b4614610156578063946bcc3014610174578063f7e9e83c14610192578063fe5a30d7146101b0576100a9565b8063086bfdd5146100ae5780630e62d667146100cc5780633fbfd4df146100ea57806359469b9f146101065780635f8d96de14610124575b600080fd5b6100b66101ce565b6040516100c39190610840565b60405180910390f35b6100d46101f8565b6040516100e19190610876565b60405180910390f35b61010460048036038101906100ff91906108f8565b610212565b005b61010e610449565b60405161011b9190610982565b60405180910390f35b61012c6104fb565b6040516101399190610982565b60405180910390f35b61014a610505565b005b6101546105b1565b005b61015e610634565b60405161016b9190610840565b60405180910390f35b61017c61065e565b6040516101899190610840565b60405180910390f35b61019a610688565b6040516101a79190610982565b60405180910390f35b6101b8610692565b6040516101c59190610982565b60405180910390f35b6000600560009054906101000a900473ffffffffffffffffffffffffffffffffffffffff16905090565b6000600254421161020a57600061020d565b60015b905090565b60008060019054906101000a900460ff161590508080156102435750600160008054906101000a900460ff1660ff16105b806102705750610252306106bf565b15801561026f5750600160008054906101000a900460ff1660ff16145b5b6102af576040517f08c379a00000000000000000000000000000000000000000000000000000000081526004016102a690610a20565b60405180910390fd5b60016000806101000a81548160ff021916908360ff16021790555080156102ec576001600060016101000a81548160ff0219169083151502179055505b6000600560146101000a81548160ff0219169083600281111561031257610311610a40565b5b0217905550856002819055508460018190555083600460006101000a81548173ffffffffffffffffffffffffffffffffffffffff021916908373ffffffffffffffffffffffffffffffffffffffff16021790555082600560006101000a81548173ffffffffffffffffffffffffffffffffffffffff021916908373ffffffffffffffffffffffffffffffffffffffff16021790555081600360006101000a81548173ffffffffffffffffffffffffffffffffffffffff021916908373ffffffffffffffffffffffffffffffffffffffff16021790555080156104415760008060016101000a81548160ff0219169083151502179055507f7f26b83ff96e1f2b6a682f133852f6798a09c465da95921460cefb384740249860016040516104389190610ac1565b60405180910390a15b505050505050565b6000600360009054906101000a900473ffffffffffffffffffffffffffffffffffffffff1673ffffffffffffffffffffffffffffffffffffffff166370a08231306040518263ffffffff1660e01b81526004016104a69190610840565b60206040518083038186803b1580156104be57600080fd5b505afa1580156104d2573d6000803e3d6000fd5b505050506040513d601f19601f820116820180604052508101906104f69190610af1565b905090565b6000600254905090565b61050d6101f8565b610543576040517fe5a33fff00000000000000000000000000000000000000000000000000000000815260040160405180910390fd5b60028081111561055657610555610a40565b5b600560149054906101000a900460ff16600281111561057857610577610a40565b5b146105af576040517fa6f7087800000000000000000000000000000000000000000000000000000000815260040160405180910390fd5b565b6105b96101f8565b6105ef576040517fe5a33fff00000000000000000000000000000000000000000000000000000000815260040160405180910390fd5b60006105f9610449565b90506001548110156106265761060e816106e2565b61061757600080fd5b61062160016107bc565b610631565b61063060026107bc565b5b50565b6000600360009054906101000a900473ffffffffffffffffffffffffffffffffffffffff16905090565b6000600460009054906101000a900473ffffffffffffffffffffffffffffffffffffffff16905090565b6000600154905090565b600060025442116106b7576106b2426002546107e990919063ffffffff16565b6106ba565b60005b905090565b6000808273ffffffffffffffffffffffffffffffffffffffff163b119050919050565b6000600360009054906101000a900473ffffffffffffffffffffffffffffffffffffffff1673ffffffffffffffffffffffffffffffffffffffff1663a9059cbb600560009054906101000a900473ffffffffffffffffffffffffffffffffffffffff16846040518363ffffffff1660e01b8152600401610763929190610b1e565b602060405180830381600087803b15801561077d57600080fd5b505af1158015610791573d6000803e3d6000fd5b505050506040513d601f19601f820116820180604052508101906107b59190610b73565b9050919050565b80600560146101000a81548160ff021916908360028111156107e1576107e0610a40565b5b021790555050565b600081836107f79190610bcf565b905092915050565b600073ffffffffffffffffffffffffffffffffffffffff82169050919050565b600061082a826107ff565b9050919050565b61083a8161081f565b82525050565b60006020820190506108556000830184610831565b92915050565b60008115159050919050565b6108708161085b565b82525050565b600060208201905061088b6000830184610867565b92915050565b600080fd5b6000819050919050565b6108a981610896565b81146108b457600080fd5b50565b6000813590506108c6816108a0565b92915050565b6108d58161081f565b81146108e057600080fd5b50565b6000813590506108f2816108cc565b92915050565b600080600080600060a0868803121561091457610913610891565b5b6000610922888289016108b7565b9550506020610933888289016108b7565b9450506040610944888289016108e3565b9350506060610955888289016108e3565b9250506080610966888289016108e3565b9150509295509295909350565b61097c81610896565b82525050565b60006020820190506109976000830184610973565b92915050565b600082825260208201905092915050565b7f496e697469616c697a61626c653a20636f6e747261637420697320616c72656160008201527f647920696e697469616c697a6564000000000000000000000000000000000000602082015250565b6000610a0a602e8361099d565b9150610a15826109ae565b604082019050919050565b60006020820190508181036000830152610a39816109fd565b9050919050565b7f4e487b7100000000000000000000000000000000000000000000000000000000600052602160045260246000fd5b6000819050919050565b600060ff82169050919050565b6000819050919050565b6000610aab610aa6610aa184610a6f565b610a86565b610a79565b9050919050565b610abb81610a90565b82525050565b6000602082019050610ad66000830184610ab2565b92915050565b600081519050610aeb816108a0565b92915050565b600060208284031215610b0757610b06610891565b5b6000610b1584828501610adc565b91505092915050565b6000604082019050610b336000830185610831565b610b406020830184610973565b9392505050565b610b508161085b565b8114610b5b57600080fd5b50565b600081519050610b6d81610b47565b92915050565b600060208284031215610b8957610b88610891565b5b6000610b9784828501610b5e565b91505092915050565b7f4e487b7100000000000000000000000000000000000000000000000000000000600052601160045260246000fd5b6000610bda82610896565b9150610be583610896565b925082821015610bf857610bf7610ba0565b5b82820390509291505056fea2646970667358221220279deb4fb152cf2a7a6f85cd72eb4d3e3b1681befbb97acd7afd8d236de9ca0964736f6c63430008090033",
  "devdoc": {
    "kind": "dev",
    "methods": {
      "constructor": {
        "custom:oz-upgrades-unsafe-allow": "constructor"
      }
    },
    "version": 1
  },
  "userdoc": {
    "kind": "user",
    "methods": {},
    "version": 1
  },
  "storageLayout": {
    "storage": [
      {
        "astId": 6,
        "contract": "contracts/SeedProject.sol:SeedProject",
        "label": "_initialized",
        "offset": 0,
        "slot": "0",
        "type": "t_uint8"
      },
      {
        "astId": 9,
        "contract": "contracts/SeedProject.sol:SeedProject",
        "label": "_initializing",
        "offset": 1,
        "slot": "0",
        "type": "t_bool"
      },
      {
        "astId": 3735,
        "contract": "contracts/SeedProject.sol:SeedProject",
        "label": "requestedFunds",
        "offset": 0,
        "slot": "1",
        "type": "t_uint256"
      },
      {
        "astId": 3737,
        "contract": "contracts/SeedProject.sol:SeedProject",
        "label": "deadline",
        "offset": 0,
        "slot": "2",
        "type": "t_uint256"
      },
      {
        "astId": 3739,
        "contract": "contracts/SeedProject.sol:SeedProject",
        "label": "projectToken",
        "offset": 0,
        "slot": "3",
        "type": "t_address"
      },
      {
        "astId": 3741,
        "contract": "contracts/SeedProject.sol:SeedProject",
        "label": "founder",
        "offset": 0,
        "slot": "4",
        "type": "t_address"
      },
      {
        "astId": 3743,
        "contract": "contracts/SeedProject.sol:SeedProject",
        "label": "fundingAddress",
        "offset": 0,
        "slot": "5",
        "type": "t_address"
      },
      {
        "astId": 3746,
        "contract": "contracts/SeedProject.sol:SeedProject",
        "label": "projectStatus",
        "offset": 20,
        "slot": "5",
        "type": "t_enum(Status)3733"
      }
    ],
    "types": {
      "t_address": {
        "encoding": "inplace",
        "label": "address",
        "numberOfBytes": "20"
      },
      "t_bool": {
        "encoding": "inplace",
        "label": "bool",
        "numberOfBytes": "1"
      },
      "t_enum(Status)3733": {
        "encoding": "inplace",
        "label": "enum SeedProject.Status",
        "numberOfBytes": "1"
      },
      "t_uint256": {
        "encoding": "inplace",
        "label": "uint256",
        "numberOfBytes": "32"
      },
      "t_uint8": {
        "encoding": "inplace",
        "label": "uint8",
        "numberOfBytes": "1"
      }
    }
  }
}