{
  "address": "0x9fE46736679d2D9a65F0992F2272dE9f3c7fa6e0",
  "abi": [
    {
      "inputs": [
        {
          "internalType": "address",
          "name": "_DFITokenAddress",
          "type": "address"
        },
        {
          "internalType": "address",
          "name": "_dSeedTokenAddress",
          "type": "address"
        }
      ],
      "stateMutability": "nonpayable",
      "type": "constructor"
    },
    {
      "inputs": [],
      "name": "SeedFinderTrove__NotEnoughAllowance",
      "type": "error"
    },
    {
      "anonymous": false,
      "inputs": [
        {
          "indexed": false,
          "internalType": "address",
          "name": "_from",
          "type": "address"
        },
        {
          "indexed": false,
          "internalType": "address",
          "name": "_to",
          "type": "address"
        },
        {
          "indexed": false,
          "internalType": "uint256",
          "name": "_amount",
          "type": "uint256"
        }
      ],
      "name": "TokenSwap",
      "type": "event"
    },
    {
      "inputs": [],
      "name": "getDFITokenAddress",
      "outputs": [
        {
          "internalType": "address",
          "name": "",
          "type": "address"
        }
      ],
      "stateMutability": "view",
      "type": "function"
    },
    {
      "inputs": [],
      "name": "getDSeedTokenAddress",
      "outputs": [
        {
          "internalType": "address",
          "name": "",
          "type": "address"
        }
      ],
      "stateMutability": "view",
      "type": "function"
    },
    {
      "inputs": [],
      "name": "getLockedDFITokens",
      "outputs": [
        {
          "internalType": "uint256",
          "name": "",
          "type": "uint256"
        }
      ],
      "stateMutability": "view",
      "type": "function"
    },
    {
      "inputs": [
        {
          "internalType": "uint256",
          "name": "_amount",
          "type": "uint256"
        }
      ],
      "name": "swapDFITokenToSeedToken",
      "outputs": [],
      "stateMutability": "nonpayable",
      "type": "function"
    },
    {
      "inputs": [
        {
          "internalType": "uint256",
          "name": "_amount",
          "type": "uint256"
        }
      ],
      "name": "swapSeedTokenToDFIToken",
      "outputs": [],
      "stateMutability": "nonpayable",
      "type": "function"
    }
  ],
  "transactionHash": "0x7b88393a46baf73c93b3a5df0c75481cb09bd5b96b57fe81d212eaa119740620",
  "args": [
    "0x5FbDB2315678afecb367f032d93F642f64180aa3",
    "0xe7f1725E7734CE288F8367e1Bb143E90bb3F0512"
  ],
  "numDeployments": 1,
  "solcInputHash": "09aac56770bd735585dc8df8dd29d484",
  "bytecode": "0x608060405234801561001057600080fd5b506040516109833803806109838339818101604052810190610032919061011d565b81600160006101000a81548173ffffffffffffffffffffffffffffffffffffffff021916908373ffffffffffffffffffffffffffffffffffffffff160217905550806000806101000a81548173ffffffffffffffffffffffffffffffffffffffff021916908373ffffffffffffffffffffffffffffffffffffffff160217905550505061015d565b600080fd5b600073ffffffffffffffffffffffffffffffffffffffff82169050919050565b60006100ea826100bf565b9050919050565b6100fa816100df565b811461010557600080fd5b50565b600081519050610117816100f1565b92915050565b60008060408385031215610134576101336100ba565b5b600061014285828601610108565b925050602061015385828601610108565b9150509250929050565b6108178061016c6000396000f3fe608060405234801561001057600080fd5b50600436106100575760003560e01c806326ee85911461005c57806346c2b8681461007a578063841c0ec914610096578063ab1935ae146100b4578063db38c738146100d2575b600080fd5b6100646100ee565b6040516100719190610604565b60405180910390f35b610094600480360381019061008f919061065a565b610117565b005b61009e6102dc565b6040516100ab9190610696565b60405180910390f35b6100bc6102e6565b6040516100c99190610604565b60405180910390f35b6100ec60048036038101906100e7919061065a565b610310565b005b60008060009054906101000a900473ffffffffffffffffffffffffffffffffffffffff16905090565b60008054906101000a900473ffffffffffffffffffffffffffffffffffffffff1673ffffffffffffffffffffffffffffffffffffffff16639dc29fac33836040518363ffffffff1660e01b81526004016101729291906106b1565b600060405180830381600087803b15801561018c57600080fd5b505af11580156101a0573d6000803e3d6000fd5b50505050600160009054906101000a900473ffffffffffffffffffffffffffffffffffffffff1673ffffffffffffffffffffffffffffffffffffffff1663a9059cbb33836040518363ffffffff1660e01b81526004016102019291906106b1565b602060405180830381600087803b15801561021b57600080fd5b505af115801561022f573d6000803e3d6000fd5b505050506040513d601f19601f820116820180604052508101906102539190610712565b61025c57600080fd5b7f9d3e64e0b9bc617a229c24a7aa25ef6c9c775a1998f32e31dde4da03c467dc0e60008054906101000a900473ffffffffffffffffffffffffffffffffffffffff16600160009054906101000a900473ffffffffffffffffffffffffffffffffffffffff16836040516102d19392919061073f565b60405180910390a150565b6000600254905090565b6000600160009054906101000a900473ffffffffffffffffffffffffffffffffffffffff16905090565b6000600160009054906101000a900473ffffffffffffffffffffffffffffffffffffffff1673ffffffffffffffffffffffffffffffffffffffff1663dd62ed3e33306040518363ffffffff1660e01b815260040161036f929190610776565b60206040518083038186803b15801561038757600080fd5b505afa15801561039b573d6000803e3d6000fd5b505050506040513d601f19601f820116820180604052508101906103bf91906107b4565b9050818110156103fb576040517f77e28ae000000000000000000000000000000000000000000000000000000000815260040160405180910390fd5b600160009054906101000a900473ffffffffffffffffffffffffffffffffffffffff1673ffffffffffffffffffffffffffffffffffffffff166323b872dd3330856040518463ffffffff1660e01b815260040161045a9392919061073f565b602060405180830381600087803b15801561047457600080fd5b505af1158015610488573d6000803e3d6000fd5b505050506040513d601f19601f820116820180604052508101906104ac9190610712565b6104b557600080fd5b60008054906101000a900473ffffffffffffffffffffffffffffffffffffffff1673ffffffffffffffffffffffffffffffffffffffff166340c10f1933846040518363ffffffff1660e01b81526004016105109291906106b1565b600060405180830381600087803b15801561052a57600080fd5b505af115801561053e573d6000803e3d6000fd5b505050507f9d3e64e0b9bc617a229c24a7aa25ef6c9c775a1998f32e31dde4da03c467dc0e600160009054906101000a900473ffffffffffffffffffffffffffffffffffffffff1660008054906101000a900473ffffffffffffffffffffffffffffffffffffffff16846040516105b79392919061073f565b60405180910390a15050565b600073ffffffffffffffffffffffffffffffffffffffff82169050919050565b60006105ee826105c3565b9050919050565b6105fe816105e3565b82525050565b600060208201905061061960008301846105f5565b92915050565b600080fd5b6000819050919050565b61063781610624565b811461064257600080fd5b50565b6000813590506106548161062e565b92915050565b6000602082840312156106705761066f61061f565b5b600061067e84828501610645565b91505092915050565b61069081610624565b82525050565b60006020820190506106ab6000830184610687565b92915050565b60006040820190506106c660008301856105f5565b6106d36020830184610687565b9392505050565b60008115159050919050565b6106ef816106da565b81146106fa57600080fd5b50565b60008151905061070c816106e6565b92915050565b6000602082840312156107285761072761061f565b5b6000610736848285016106fd565b91505092915050565b600060608201905061075460008301866105f5565b61076160208301856105f5565b61076e6040830184610687565b949350505050565b600060408201905061078b60008301856105f5565b61079860208301846105f5565b9392505050565b6000815190506107ae8161062e565b92915050565b6000602082840312156107ca576107c961061f565b5b60006107d88482850161079f565b9150509291505056fea26469706673582212206abadbb493eb0f5166d2c6071bdfc5e35bd72041d6763fa8582af0e637cff4ec64736f6c63430008090033",
  "devdoc": {
    "kind": "dev",
    "methods": {},
    "version": 1
  },
  "userdoc": {
    "kind": "user",
    "methods": {},
    "version": 1
  },
  "storageLayout": {
    "storage": [
      {
        "astId": 2670,
        "contract": "contracts/SeedFinderTrove.sol:SeedFinderTrove",
        "label": "seedToken",
        "offset": 0,
        "slot": "0",
        "type": "t_contract(ISeedToken)2848"
      },
      {
        "astId": 2673,
        "contract": "contracts/SeedFinderTrove.sol:SeedFinderTrove",
        "label": "DFIToken",
        "offset": 0,
        "slot": "1",
        "type": "t_contract(IERC20)777"
      },
      {
        "astId": 2675,
        "contract": "contracts/SeedFinderTrove.sol:SeedFinderTrove",
        "label": "lockedDFIToken",
        "offset": 0,
        "slot": "2",
        "type": "t_uint256"
      }
    ],
    "types": {
      "t_contract(IERC20)777": {
        "encoding": "inplace",
        "label": "contract IERC20",
        "numberOfBytes": "20"
      },
      "t_contract(ISeedToken)2848": {
        "encoding": "inplace",
        "label": "contract ISeedToken",
        "numberOfBytes": "20"
      },
      "t_uint256": {
        "encoding": "inplace",
        "label": "uint256",
        "numberOfBytes": "32"
      }
    }
  }
}