{
  "address": "0x84751ad92610dB12F7FBfc48e3794C9B105392D6",
  "abi": [
    {
      "inputs": [],
      "stateMutability": "nonpayable",
      "type": "constructor"
    },
    {
      "inputs": [],
      "name": "SeedProject__FundingDontFailed",
      "type": "error"
    },
    {
      "inputs": [],
      "name": "SeedProject__FundingNotFinished",
      "type": "error"
    },
    {
      "inputs": [],
      "name": "SeedProject__NotEnoughDSEEDAllowance",
      "type": "error"
    },
    {
      "inputs": [],
      "name": "SeedProject__NotEnoughProjectTokensLeft",
      "type": "error"
    },
    {
      "inputs": [],
      "name": "SeedProject__NotEnoughTokens",
      "type": "error"
    },
    {
      "anonymous": false,
      "inputs": [
        {
          "indexed": false,
          "internalType": "address",
          "name": "funder",
          "type": "address"
        },
        {
          "indexed": false,
          "internalType": "uint256",
          "name": "dSeedTokens",
          "type": "uint256"
        },
        {
          "indexed": false,
          "internalType": "uint256",
          "name": "projectTokensclaimed",
          "type": "uint256"
        },
        {
          "indexed": false,
          "internalType": "uint256",
          "name": "newFundingAmount",
          "type": "uint256"
        }
      ],
      "name": "Funding",
      "type": "event"
    },
    {
      "anonymous": false,
      "inputs": [
        {
          "indexed": false,
          "internalType": "address",
          "name": "fundingAddress",
          "type": "address"
        },
        {
          "indexed": false,
          "internalType": "uint256",
          "name": "tokenAmount",
          "type": "uint256"
        }
      ],
      "name": "FundingsTransfered",
      "type": "event"
    },
    {
      "anonymous": false,
      "inputs": [
        {
          "indexed": false,
          "internalType": "uint8",
          "name": "version",
          "type": "uint8"
        }
      ],
      "name": "Initialized",
      "type": "event"
    },
    {
      "anonymous": false,
      "inputs": [
        {
          "indexed": false,
          "internalType": "enum SeedProject.Status",
          "name": "newStatus",
          "type": "uint8"
        }
      ],
      "name": "ProjectStatusChanged",
      "type": "event"
    },
    {
      "inputs": [],
      "name": "finishProject",
      "outputs": [],
      "stateMutability": "nonpayable",
      "type": "function"
    },
    {
      "inputs": [],
      "name": "getDeadline",
      "outputs": [
        {
          "internalType": "uint256",
          "name": "",
          "type": "uint256"
        }
      ],
      "stateMutability": "view",
      "type": "function"
    },
    {
      "inputs": [],
      "name": "getFounder",
      "outputs": [
        {
          "internalType": "address",
          "name": "",
          "type": "address"
        }
      ],
      "stateMutability": "view",
      "type": "function"
    },
    {
      "inputs": [],
      "name": "getFundedTokenAmount",
      "outputs": [
        {
          "internalType": "uint256",
          "name": "",
          "type": "uint256"
        }
      ],
      "stateMutability": "view",
      "type": "function"
    },
    {
      "inputs": [],
      "name": "getFundingAddress",
      "outputs": [
        {
          "internalType": "address",
          "name": "",
          "type": "address"
        }
      ],
      "stateMutability": "view",
      "type": "function"
    },
    {
      "inputs": [],
      "name": "getProjectTokenAddress",
      "outputs": [
        {
          "internalType": "address",
          "name": "",
          "type": "address"
        }
      ],
      "stateMutability": "view",
      "type": "function"
    },
    {
      "inputs": [],
      "name": "getProjectTokensLeft",
      "outputs": [
        {
          "internalType": "uint256",
          "name": "",
          "type": "uint256"
        }
      ],
      "stateMutability": "view",
      "type": "function"
    },
    {
      "inputs": [],
      "name": "getRemainingFundingTime",
      "outputs": [
        {
          "internalType": "uint256",
          "name": "",
          "type": "uint256"
        }
      ],
      "stateMutability": "view",
      "type": "function"
    },
    {
      "inputs": [],
      "name": "getRequestedFunds",
      "outputs": [
        {
          "internalType": "uint256",
          "name": "",
          "type": "uint256"
        }
      ],
      "stateMutability": "view",
      "type": "function"
    },
    {
      "inputs": [],
      "name": "getTokenPrice",
      "outputs": [
        {
          "internalType": "uint256",
          "name": "",
          "type": "uint256"
        }
      ],
      "stateMutability": "view",
      "type": "function"
    },
    {
      "inputs": [
        {
          "internalType": "uint256",
          "name": "_deadline",
          "type": "uint256"
        },
        {
          "internalType": "uint256",
          "name": "_requestedFunds",
          "type": "uint256"
        },
        {
          "internalType": "address",
          "name": "_founder",
          "type": "address"
        },
        {
          "internalType": "address",
          "name": "_fundingAddress",
          "type": "address"
        },
        {
          "internalType": "address",
          "name": "_tokenAddress",
          "type": "address"
        },
        {
          "internalType": "address",
          "name": "_seedTokenAddress",
          "type": "address"
        }
      ],
      "name": "initialize",
      "outputs": [],
      "stateMutability": "nonpayable",
      "type": "function"
    },
    {
      "inputs": [],
      "name": "isFundingFinished",
      "outputs": [
        {
          "internalType": "bool",
          "name": "",
          "type": "bool"
        }
      ],
      "stateMutability": "view",
      "type": "function"
    },
    {
      "inputs": [],
      "name": "retrieveFunds",
      "outputs": [],
      "stateMutability": "nonpayable",
      "type": "function"
    },
    {
      "inputs": [
        {
          "internalType": "uint256",
          "name": "_amount",
          "type": "uint256"
        }
      ],
      "name": "swapDSEEDToProjectToken",
      "outputs": [],
      "stateMutability": "nonpayable",
      "type": "function"
    }
  ],
  "transactionHash": "0xaee2e32642365de92a804633228e2d2728e4fcca33068b38adf19256887d2c39",
  "args": [],
  "numDeployments": 1,
  "solcInputHash": "867b3dbe1ac63df61701001a010d50ef",
  "bytecode": "0x60806040523480156200001157600080fd5b50620000226200002860201b60201c565b620001d3565b600060019054906101000a900460ff16156200007b576040517f08c379a0000000000000000000000000000000000000000000000000000000008152600401620000729062000176565b60405180910390fd5b60ff801660008054906101000a900460ff1660ff161015620000ed5760ff6000806101000a81548160ff021916908360ff1602179055507f7f26b83ff96e1f2b6a682f133852f6798a09c465da95921460cefb384740249860ff604051620000e49190620001b6565b60405180910390a15b565b600082825260208201905092915050565b7f496e697469616c697a61626c653a20636f6e747261637420697320696e69746960008201527f616c697a696e6700000000000000000000000000000000000000000000000000602082015250565b60006200015e602783620000ef565b91506200016b8262000100565b604082019050919050565b6000602082019050818103600083015262000191816200014f565b9050919050565b600060ff82169050919050565b620001b08162000198565b82525050565b6000602082019050620001cd6000830184620001a5565b92915050565b61134680620001e36000396000f3fe608060405234801561001057600080fd5b50600436106100ea5760003560e01c806361b20d8c1161008c578063946bcc3011610066578063946bcc30146101ef578063aad21cc61461020d578063f7e9e83c1461022b578063fe5a30d714610249576100ea565b806361b20d8c146101bd57806369788c8e146101c75780637cbb7b46146101d1576100ea565b80634b94f50e116100c85780634b94f50e1461014757806359469b9f146101655780635d964772146101835780635f8d96de1461019f576100ea565b8063086bfdd5146100ef5780630e62d6671461010d57806310e51e141461012b575b600080fd5b6100f7610267565b6040516101049190610e09565b60405180910390f35b610115610291565b6040516101229190610e3f565b60405180910390f35b61014560048036038101906101409190610ec1565b6102ab565b005b61014f61052c565b60405161015c9190610f5d565b60405180910390f35b61016d610536565b60405161017a9190610f5d565b60405180910390f35b61019d60048036038101906101989190610f78565b6105e8565b005b6101a76107ce565b6040516101b49190610f5d565b60405180910390f35b6101c56107d8565b005b6101cf610884565b005b6101d9610907565b6040516101e69190610e09565b60405180910390f35b6101f7610931565b6040516102049190610e09565b60405180910390f35b61021561095b565b6040516102229190610f5d565b60405180910390f35b610233610a0d565b6040516102409190610f5d565b60405180910390f35b610251610a17565b60405161025e9190610f5d565b60405180910390f35b6000600660009054906101000a900473ffffffffffffffffffffffffffffffffffffffff16905090565b600060025442116102a35760006102a6565b60015b905090565b60008060019054906101000a900460ff161590508080156102dc5750600160008054906101000a900460ff1660ff16105b8061030957506102eb30610a44565b1580156103085750600160008054906101000a900460ff1660ff16145b5b610348576040517f08c379a000000000000000000000000000000000000000000000000000000000815260040161033f90611028565b60405180910390fd5b60016000806101000a81548160ff021916908360ff1602179055508015610385576001600060016101000a81548160ff0219169083151502179055505b6000600760146101000a81548160ff021916908360028111156103ab576103aa611048565b5b0217905550866002819055508560018190555084600560006101000a81548173ffffffffffffffffffffffffffffffffffffffff021916908373ffffffffffffffffffffffffffffffffffffffff16021790555083600660006101000a81548173ffffffffffffffffffffffffffffffffffffffff021916908373ffffffffffffffffffffffffffffffffffffffff16021790555082600460006101000a81548173ffffffffffffffffffffffffffffffffffffffff021916908373ffffffffffffffffffffffffffffffffffffffff16021790555081600760006101000a81548173ffffffffffffffffffffffffffffffffffffffff021916908373ffffffffffffffffffffffffffffffffffffffff1602179055506104ca610a67565b80156105235760008060016101000a81548160ff0219169083151502179055507f7f26b83ff96e1f2b6a682f133852f6798a09c465da95921460cefb3847402498600160405161051a91906110c9565b60405180910390a15b50505050505050565b6000600354905090565b6000600760009054906101000a900473ffffffffffffffffffffffffffffffffffffffff1673ffffffffffffffffffffffffffffffffffffffff166370a08231306040518263ffffffff1660e01b81526004016105939190610e09565b60206040518083038186803b1580156105ab57600080fd5b505afa1580156105bf573d6000803e3d6000fd5b505050506040513d601f19601f820116820180604052508101906105e391906110f9565b905090565b6105f181610b23565b6105fa81610b67565b61060381610c56565b600760009054906101000a900473ffffffffffffffffffffffffffffffffffffffff1673ffffffffffffffffffffffffffffffffffffffff166323b872dd3330846040518463ffffffff1660e01b815260040161066293929190611126565b602060405180830381600087803b15801561067c57600080fd5b505af1158015610690573d6000803e3d6000fd5b505050506040513d601f19601f820116820180604052508101906106b49190611189565b6106bd57600080fd5b60006106d460035483610c9590919063ffffffff16565b9050600460009054906101000a900473ffffffffffffffffffffffffffffffffffffffff1673ffffffffffffffffffffffffffffffffffffffff1663a9059cbb33836040518363ffffffff1660e01b81526004016107339291906111b6565b602060405180830381600087803b15801561074d57600080fd5b505af1158015610761573d6000803e3d6000fd5b505050506040513d601f19601f820116820180604052508101906107859190611189565b507f261eef0a9bca6d5e251dabbfb67268ac5711273f959abc61f49497e9350926ca3383836107b2610536565b6040516107c294939291906111df565b60405180910390a15050565b6000600254905090565b6107e0610291565b610816576040517fe5a33fff00000000000000000000000000000000000000000000000000000000815260040160405180910390fd5b60028081111561082957610828611048565b5b600760149054906101000a900460ff16600281111561084b5761084a611048565b5b14610882576040517fa6f7087800000000000000000000000000000000000000000000000000000000815260040160405180910390fd5b565b61088c610291565b6108c2576040517fe5a33fff00000000000000000000000000000000000000000000000000000000815260040160405180910390fd5b60006108cc610536565b90506001548110156108f9576108e181610cab565b6108ea57600080fd5b6108f46001610d85565b610904565b6109036002610d85565b5b50565b6000600460009054906101000a900473ffffffffffffffffffffffffffffffffffffffff16905090565b6000600560009054906101000a900473ffffffffffffffffffffffffffffffffffffffff16905090565b6000600460009054906101000a900473ffffffffffffffffffffffffffffffffffffffff1673ffffffffffffffffffffffffffffffffffffffff166370a08231306040518263ffffffff1660e01b81526004016109b89190610e09565b60206040518083038186803b1580156109d057600080fd5b505afa1580156109e4573d6000803e3d6000fd5b505050506040513d601f19601f82011682018060405250810190610a0891906110f9565b905090565b6000600154905090565b60006002544211610a3c57610a3742600254610db290919063ffffffff16565b610a3f565b60005b905090565b6000808273ffffffffffffffffffffffffffffffffffffffff163b119050919050565b610b1b600460009054906101000a900473ffffffffffffffffffffffffffffffffffffffff1673ffffffffffffffffffffffffffffffffffffffff166318160ddd6040518163ffffffff1660e01b815260040160206040518083038186803b158015610ad257600080fd5b505afa158015610ae6573d6000803e3d6000fd5b505050506040513d601f19601f82011682018060405250810190610b0a91906110f9565b600154610c9590919063ffffffff16565b600381905550565b610b2b61095b565b811115610b64576040517f8ec8d7d700000000000000000000000000000000000000000000000000000000815260040160405180910390fd5b50565b6000600760009054906101000a900473ffffffffffffffffffffffffffffffffffffffff1673ffffffffffffffffffffffffffffffffffffffff1663dd62ed3e33306040518363ffffffff1660e01b8152600401610bc6929190611224565b60206040518083038186803b158015610bde57600080fd5b505afa158015610bf2573d6000803e3d6000fd5b505050506040513d601f19601f82011682018060405250810190610c1691906110f9565b905081811015610c52576040517f966ad2a400000000000000000000000000000000000000000000000000000000815260040160405180910390fd5b5050565b600354811015610c92576040517f5b46b56d00000000000000000000000000000000000000000000000000000000815260040160405180910390fd5b50565b60008183610ca391906112ab565b905092915050565b6000600460009054906101000a900473ffffffffffffffffffffffffffffffffffffffff1673ffffffffffffffffffffffffffffffffffffffff1663a9059cbb600660009054906101000a900473ffffffffffffffffffffffffffffffffffffffff16846040518363ffffffff1660e01b8152600401610d2c9291906111b6565b602060405180830381600087803b158015610d4657600080fd5b505af1158015610d5a573d6000803e3d6000fd5b505050506040513d601f19601f82011682018060405250810190610d7e9190611189565b9050919050565b80600760146101000a81548160ff02191690836002811115610daa57610da9611048565b5b021790555050565b60008183610dc091906112dc565b905092915050565b600073ffffffffffffffffffffffffffffffffffffffff82169050919050565b6000610df382610dc8565b9050919050565b610e0381610de8565b82525050565b6000602082019050610e1e6000830184610dfa565b92915050565b60008115159050919050565b610e3981610e24565b82525050565b6000602082019050610e546000830184610e30565b92915050565b600080fd5b6000819050919050565b610e7281610e5f565b8114610e7d57600080fd5b50565b600081359050610e8f81610e69565b92915050565b610e9e81610de8565b8114610ea957600080fd5b50565b600081359050610ebb81610e95565b92915050565b60008060008060008060c08789031215610ede57610edd610e5a565b5b6000610eec89828a01610e80565b9650506020610efd89828a01610e80565b9550506040610f0e89828a01610eac565b9450506060610f1f89828a01610eac565b9350506080610f3089828a01610eac565b92505060a0610f4189828a01610eac565b9150509295509295509295565b610f5781610e5f565b82525050565b6000602082019050610f726000830184610f4e565b92915050565b600060208284031215610f8e57610f8d610e5a565b5b6000610f9c84828501610e80565b91505092915050565b600082825260208201905092915050565b7f496e697469616c697a61626c653a20636f6e747261637420697320616c72656160008201527f647920696e697469616c697a6564000000000000000000000000000000000000602082015250565b6000611012602e83610fa5565b915061101d82610fb6565b604082019050919050565b6000602082019050818103600083015261104181611005565b9050919050565b7f4e487b7100000000000000000000000000000000000000000000000000000000600052602160045260246000fd5b6000819050919050565b600060ff82169050919050565b6000819050919050565b60006110b36110ae6110a984611077565b61108e565b611081565b9050919050565b6110c381611098565b82525050565b60006020820190506110de60008301846110ba565b92915050565b6000815190506110f381610e69565b92915050565b60006020828403121561110f5761110e610e5a565b5b600061111d848285016110e4565b91505092915050565b600060608201905061113b6000830186610dfa565b6111486020830185610dfa565b6111556040830184610f4e565b949350505050565b61116681610e24565b811461117157600080fd5b50565b6000815190506111838161115d565b92915050565b60006020828403121561119f5761119e610e5a565b5b60006111ad84828501611174565b91505092915050565b60006040820190506111cb6000830185610dfa565b6111d86020830184610f4e565b9392505050565b60006080820190506111f46000830187610dfa565b6112016020830186610f4e565b61120e6040830185610f4e565b61121b6060830184610f4e565b95945050505050565b60006040820190506112396000830185610dfa565b6112466020830184610dfa565b9392505050565b7f4e487b7100000000000000000000000000000000000000000000000000000000600052601260045260246000fd5b7f4e487b7100000000000000000000000000000000000000000000000000000000600052601160045260246000fd5b60006112b682610e5f565b91506112c183610e5f565b9250826112d1576112d061124d565b5b828204905092915050565b60006112e782610e5f565b91506112f283610e5f565b9250828210156113055761130461127c565b5b82820390509291505056fea2646970667358221220bb21f1ed36bffc4292b258cf13eedbddef1887b421f572a321cc347976cdb7d764736f6c63430008090033",
  "devdoc": {
    "kind": "dev",
    "methods": {
      "constructor": {
        "custom:oz-upgrades-unsafe-allow": "constructor"
      }
    },
    "version": 1
  },
  "userdoc": {
    "kind": "user",
    "methods": {},
    "version": 1
  },
  "storageLayout": {
    "storage": [
      {
        "astId": 6,
        "contract": "contracts/SeedProject.sol:SeedProject",
        "label": "_initialized",
        "offset": 0,
        "slot": "0",
        "type": "t_uint8"
      },
      {
        "astId": 9,
        "contract": "contracts/SeedProject.sol:SeedProject",
        "label": "_initializing",
        "offset": 1,
        "slot": "0",
        "type": "t_bool"
      },
      {
        "astId": 6579,
        "contract": "contracts/SeedProject.sol:SeedProject",
        "label": "requestedFunds",
        "offset": 0,
        "slot": "1",
        "type": "t_uint256"
      },
      {
        "astId": 6581,
        "contract": "contracts/SeedProject.sol:SeedProject",
        "label": "deadline",
        "offset": 0,
        "slot": "2",
        "type": "t_uint256"
      },
      {
        "astId": 6583,
        "contract": "contracts/SeedProject.sol:SeedProject",
        "label": "tokenPrice",
        "offset": 0,
        "slot": "3",
        "type": "t_uint256"
      },
      {
        "astId": 6585,
        "contract": "contracts/SeedProject.sol:SeedProject",
        "label": "projectToken",
        "offset": 0,
        "slot": "4",
        "type": "t_address"
      },
      {
        "astId": 6587,
        "contract": "contracts/SeedProject.sol:SeedProject",
        "label": "founder",
        "offset": 0,
        "slot": "5",
        "type": "t_address"
      },
      {
        "astId": 6589,
        "contract": "contracts/SeedProject.sol:SeedProject",
        "label": "fundingAddress",
        "offset": 0,
        "slot": "6",
        "type": "t_address"
      },
      {
        "astId": 6591,
        "contract": "contracts/SeedProject.sol:SeedProject",
        "label": "seedToken",
        "offset": 0,
        "slot": "7",
        "type": "t_address"
      },
      {
        "astId": 6594,
        "contract": "contracts/SeedProject.sol:SeedProject",
        "label": "projectStatus",
        "offset": 20,
        "slot": "7",
        "type": "t_enum(Status)6577"
      }
    ],
    "types": {
      "t_address": {
        "encoding": "inplace",
        "label": "address",
        "numberOfBytes": "20"
      },
      "t_bool": {
        "encoding": "inplace",
        "label": "bool",
        "numberOfBytes": "1"
      },
      "t_enum(Status)6577": {
        "encoding": "inplace",
        "label": "enum SeedProject.Status",
        "numberOfBytes": "1"
      },
      "t_uint256": {
        "encoding": "inplace",
        "label": "uint256",
        "numberOfBytes": "32"
      },
      "t_uint8": {
        "encoding": "inplace",
        "label": "uint8",
        "numberOfBytes": "1"
      }
    }
  }
}