{
  "address": "0xeB659ebA057b15570825C9F8771cC79191DD2Ddc",
  "abi": [
    {
      "inputs": [
        {
          "internalType": "address",
          "name": "_DFITokenAddress",
          "type": "address"
        },
        {
          "internalType": "address",
          "name": "_dSeedTokenAddress",
          "type": "address"
        }
      ],
      "stateMutability": "nonpayable",
      "type": "constructor"
    },
    {
      "inputs": [],
      "name": "SeedFinderTrove__NotEnoughAllowance",
      "type": "error"
    },
    {
      "anonymous": false,
      "inputs": [
        {
          "indexed": false,
          "internalType": "address",
          "name": "_from",
          "type": "address"
        },
        {
          "indexed": false,
          "internalType": "address",
          "name": "_to",
          "type": "address"
        },
        {
          "indexed": false,
          "internalType": "uint256",
          "name": "_amount",
          "type": "uint256"
        }
      ],
      "name": "TokenSwap",
      "type": "event"
    },
    {
      "inputs": [],
      "name": "getDFITokenAddress",
      "outputs": [
        {
          "internalType": "address",
          "name": "",
          "type": "address"
        }
      ],
      "stateMutability": "view",
      "type": "function"
    },
    {
      "inputs": [],
      "name": "getDSeedTokenAddress",
      "outputs": [
        {
          "internalType": "address",
          "name": "",
          "type": "address"
        }
      ],
      "stateMutability": "view",
      "type": "function"
    },
    {
      "inputs": [],
      "name": "getLockedDFITokens",
      "outputs": [
        {
          "internalType": "uint256",
          "name": "",
          "type": "uint256"
        }
      ],
      "stateMutability": "view",
      "type": "function"
    },
    {
      "inputs": [
        {
          "internalType": "uint256",
          "name": "_amount",
          "type": "uint256"
        }
      ],
      "name": "swapDFITokenToSeedToken",
      "outputs": [],
      "stateMutability": "nonpayable",
      "type": "function"
    },
    {
      "inputs": [
        {
          "internalType": "uint256",
          "name": "_amount",
          "type": "uint256"
        }
      ],
      "name": "swapSeedTokenToDFIToken",
      "outputs": [],
      "stateMutability": "nonpayable",
      "type": "function"
    }
  ],
  "transactionHash": "0xf6226a22480befcae0093dc07e6e2f6456b68c2c168f9d4b683f39defb45ab40",
  "args": [
    "0x1B51470B51Da8F7ee28acF90715A469CA96c8D3D",
    "0xC4Bee702E033ac26fa9488F48F9Be0056BFE3D9D"
  ],
  "numDeployments": 1,
  "solcInputHash": "1073c496834474a5b9d85b4a4adc973a",
  "bytecode": "0x608060405234801561001057600080fd5b50604051610a6e380380610a6e8339818101604052810190610032919061011d565b81600160006101000a81548173ffffffffffffffffffffffffffffffffffffffff021916908373ffffffffffffffffffffffffffffffffffffffff160217905550806000806101000a81548173ffffffffffffffffffffffffffffffffffffffff021916908373ffffffffffffffffffffffffffffffffffffffff160217905550505061015d565b600080fd5b600073ffffffffffffffffffffffffffffffffffffffff82169050919050565b60006100ea826100bf565b9050919050565b6100fa816100df565b811461010557600080fd5b50565b600081519050610117816100f1565b92915050565b60008060408385031215610134576101336100ba565b5b600061014285828601610108565b925050602061015385828601610108565b9150509250929050565b6109028061016c6000396000f3fe608060405234801561001057600080fd5b50600436106100575760003560e01c806326ee85911461005c57806346c2b8681461007a578063841c0ec914610096578063ab1935ae146100b4578063db38c738146100d2575b600080fd5b6100646100ee565b6040516100719190610636565b60405180910390f35b610094600480360381019061008f919061068c565b610117565b005b61009e6102f5565b6040516100ab91906106c8565b60405180910390f35b6100bc6102ff565b6040516100c99190610636565b60405180910390f35b6100ec60048036038101906100e7919061068c565b610329565b005b60008060009054906101000a900473ffffffffffffffffffffffffffffffffffffffff16905090565b60008054906101000a900473ffffffffffffffffffffffffffffffffffffffff1673ffffffffffffffffffffffffffffffffffffffff16639dc29fac33836040518363ffffffff1660e01b81526004016101729291906106e3565b600060405180830381600087803b15801561018c57600080fd5b505af11580156101a0573d6000803e3d6000fd5b50505050600160009054906101000a900473ffffffffffffffffffffffffffffffffffffffff1673ffffffffffffffffffffffffffffffffffffffff1663a9059cbb33836040518363ffffffff1660e01b81526004016102019291906106e3565b602060405180830381600087803b15801561021b57600080fd5b505af115801561022f573d6000803e3d6000fd5b505050506040513d601f19601f820116820180604052508101906102539190610744565b61025c57600080fd5b806002600082825461026e91906107a0565b925050819055507f9d3e64e0b9bc617a229c24a7aa25ef6c9c775a1998f32e31dde4da03c467dc0e60008054906101000a900473ffffffffffffffffffffffffffffffffffffffff16600160009054906101000a900473ffffffffffffffffffffffffffffffffffffffff16836040516102ea939291906107d4565b60405180910390a150565b6000600254905090565b6000600160009054906101000a900473ffffffffffffffffffffffffffffffffffffffff16905090565b6000600160009054906101000a900473ffffffffffffffffffffffffffffffffffffffff1673ffffffffffffffffffffffffffffffffffffffff1663dd62ed3e33306040518363ffffffff1660e01b815260040161038892919061080b565b60206040518083038186803b1580156103a057600080fd5b505afa1580156103b4573d6000803e3d6000fd5b505050506040513d601f19601f820116820180604052508101906103d89190610849565b905081811015610414576040517f77e28ae000000000000000000000000000000000000000000000000000000000815260040160405180910390fd5b600160009054906101000a900473ffffffffffffffffffffffffffffffffffffffff1673ffffffffffffffffffffffffffffffffffffffff166323b872dd3330856040518463ffffffff1660e01b8152600401610473939291906107d4565b602060405180830381600087803b15801561048d57600080fd5b505af11580156104a1573d6000803e3d6000fd5b505050506040513d601f19601f820116820180604052508101906104c59190610744565b6104ce57600080fd5b60008054906101000a900473ffffffffffffffffffffffffffffffffffffffff1673ffffffffffffffffffffffffffffffffffffffff166340c10f1933846040518363ffffffff1660e01b81526004016105299291906106e3565b600060405180830381600087803b15801561054357600080fd5b505af1158015610557573d6000803e3d6000fd5b50505050816002600082825461056d9190610876565b925050819055507f9d3e64e0b9bc617a229c24a7aa25ef6c9c775a1998f32e31dde4da03c467dc0e600160009054906101000a900473ffffffffffffffffffffffffffffffffffffffff1660008054906101000a900473ffffffffffffffffffffffffffffffffffffffff16846040516105e9939291906107d4565b60405180910390a15050565b600073ffffffffffffffffffffffffffffffffffffffff82169050919050565b6000610620826105f5565b9050919050565b61063081610615565b82525050565b600060208201905061064b6000830184610627565b92915050565b600080fd5b6000819050919050565b61066981610656565b811461067457600080fd5b50565b60008135905061068681610660565b92915050565b6000602082840312156106a2576106a1610651565b5b60006106b084828501610677565b91505092915050565b6106c281610656565b82525050565b60006020820190506106dd60008301846106b9565b92915050565b60006040820190506106f86000830185610627565b61070560208301846106b9565b9392505050565b60008115159050919050565b6107218161070c565b811461072c57600080fd5b50565b60008151905061073e81610718565b92915050565b60006020828403121561075a57610759610651565b5b60006107688482850161072f565b91505092915050565b7f4e487b7100000000000000000000000000000000000000000000000000000000600052601160045260246000fd5b60006107ab82610656565b91506107b683610656565b9250828210156107c9576107c8610771565b5b828203905092915050565b60006060820190506107e96000830186610627565b6107f66020830185610627565b61080360408301846106b9565b949350505050565b60006040820190506108206000830185610627565b61082d6020830184610627565b9392505050565b60008151905061084381610660565b92915050565b60006020828403121561085f5761085e610651565b5b600061086d84828501610834565b91505092915050565b600061088182610656565b915061088c83610656565b9250827fffffffffffffffffffffffffffffffffffffffffffffffffffffffffffffffff038211156108c1576108c0610771565b5b82820190509291505056fea26469706673582212201c5a05a4f807d2e762e1a87970d2e7c05cb1a467de9fadad8cc015f373b6dcb064736f6c63430008090033",
  "devdoc": {
    "kind": "dev",
    "methods": {},
    "version": 1
  },
  "userdoc": {
    "kind": "user",
    "methods": {},
    "version": 1
  },
  "storageLayout": {
    "storage": [
      {
        "astId": 6385,
        "contract": "contracts/SeedFinderTrove.sol:SeedFinderTrove",
        "label": "seedToken",
        "offset": 0,
        "slot": "0",
        "type": "t_contract(ISeedToken)7042"
      },
      {
        "astId": 6388,
        "contract": "contracts/SeedFinderTrove.sol:SeedFinderTrove",
        "label": "DFIToken",
        "offset": 0,
        "slot": "1",
        "type": "t_contract(IERC20)3919"
      },
      {
        "astId": 6390,
        "contract": "contracts/SeedFinderTrove.sol:SeedFinderTrove",
        "label": "lockedDFIToken",
        "offset": 0,
        "slot": "2",
        "type": "t_uint256"
      }
    ],
    "types": {
      "t_contract(IERC20)3919": {
        "encoding": "inplace",
        "label": "contract IERC20",
        "numberOfBytes": "20"
      },
      "t_contract(ISeedToken)7042": {
        "encoding": "inplace",
        "label": "contract ISeedToken",
        "numberOfBytes": "20"
      },
      "t_uint256": {
        "encoding": "inplace",
        "label": "uint256",
        "numberOfBytes": "32"
      }
    }
  }
}